:020000040000FA
:08000000803102288731F52F41
:100E3800903041019E0008005101910193019201F7
:100E480008009030460196003E30950040309400EE
:100E580008000130450190008F019101F9308D00A3
:100E68008C014E010D13803045018E0008000130C1
:100E78007302EC30031972020318432F442F472FD3
:100E880040011815492F40011811080087317027B3
:100E98008731873120278731873125278731873167
:100EA8001C27873187319C2787318731C8278731AD
:100EB80087313B27873187312D2787314130FA0029
:100EC800EE30890B652FFA0B652F003287319C278E
:100ED8008731532F803102284001980199019A01E6
:100EE8003B309200F0309300FF309400FF307E01D9
:100EF800CE00F030C3003330B800C401B901CF01CF
:100F08000430BA00C501D0013730BB00F030C6004C
:100F1800FF30D1003F30BC00F030C700FF30D200B6
:100F28004001121114157E01B816B8149201080078
:100F3800153041019D009D149D18A32FA42FA02FAB
:100F48001C08F800F9017808F6007908F7001B0872
:100F5800F800F9017808F4007908F50005309D00DB
:100F68009D149D18B82FB92FB52F1C08F800F9014A
:100F78007808F6007908F7001B08F800F9017808E6
:100F8800F4007908F500080076087704031DCD2FD2
:100F9800CE2FD32F7508F3007408F200F42F7603D0
:100FA8007704031DD82FD92FE02F7408003EF200D4
:100FB8000130753DF300F42F023076067704031DE7
:100FC800E62FE72FEE2F7408003EF2000230753D41
:100FD800F300F42F7408003EF2000330753DF3006F
:100FE8000800F001F101F201F301F401F501F60145
:080FF800F701400187314A2F87
:020000040001F9
:04000E00ED3FE73F9C
:04001400FF3FFF3F6C
:00000001FF
